{
  "contractName": "Amp",
  "abi": [
    {
      "inputs": [],
      "stateMutability": "nonpayable",
      "type": "constructor"
    },
    {
      "anonymous": false,
      "inputs": [
        {
          "indexed": true,
          "internalType": "address",
          "name": "account",
          "type": "address"
        },
        {
          "indexed": true,
          "internalType": "address",
          "name": "operator",
          "type": "address"
        },
        {
          "indexed": false,
          "internalType": "bool",
          "name": "approved",
          "type": "bool"
        }
      ],
      "name": "ApprovalForAll",
      "type": "event"
    },
    {
      "anonymous": false,
      "inputs": [
        {
          "indexed": true,
          "internalType": "uint256",
          "name": "id",
          "type": "uint256"
        },
        {
          "indexed": false,
          "internalType": "address",
          "name": "creator",
          "type": "address"
        },
        {
          "indexed": false,
          "internalType": "address",
          "name": "owner",
          "type": "address"
        },
        {
          "indexed": false,
          "internalType": "uint256",
          "name": "price",
          "type": "uint256"
        },
        {
          "indexed": false,
          "internalType": "uint256",
          "name": "_amount",
          "type": "uint256"
        }
      ],
      "name": "CourseItemCreated",
      "type": "event"
    },
    {
      "anonymous": false,
      "inputs": [
        {
          "indexed": true,
          "internalType": "address",
          "name": "previousOwner",
          "type": "address"
        },
        {
          "indexed": true,
          "internalType": "address",
          "name": "newOwner",
          "type": "address"
        }
      ],
      "name": "OwnershipTransferred",
      "type": "event"
    },
    {
      "anonymous": false,
      "inputs": [
        {
          "indexed": true,
          "internalType": "address",
          "name": "operator",
          "type": "address"
        },
        {
          "indexed": true,
          "internalType": "address",
          "name": "from",
          "type": "address"
        },
        {
          "indexed": true,
          "internalType": "address",
          "name": "to",
          "type": "address"
        },
        {
          "indexed": false,
          "internalType": "uint256[]",
          "name": "ids",
          "type": "uint256[]"
        },
        {
          "indexed": false,
          "internalType": "uint256[]",
          "name": "values",
          "type": "uint256[]"
        }
      ],
      "name": "TransferBatch",
      "type": "event"
    },
    {
      "anonymous": false,
      "inputs": [
        {
          "indexed": true,
          "internalType": "address",
          "name": "operator",
          "type": "address"
        },
        {
          "indexed": true,
          "internalType": "address",
          "name": "from",
          "type": "address"
        },
        {
          "indexed": true,
          "internalType": "address",
          "name": "to",
          "type": "address"
        },
        {
          "indexed": false,
          "internalType": "uint256",
          "name": "id",
          "type": "uint256"
        },
        {
          "indexed": false,
          "internalType": "uint256",
          "name": "value",
          "type": "uint256"
        }
      ],
      "name": "TransferSingle",
      "type": "event"
    },
    {
      "anonymous": false,
      "inputs": [
        {
          "indexed": false,
          "internalType": "string",
          "name": "value",
          "type": "string"
        },
        {
          "indexed": true,
          "internalType": "uint256",
          "name": "id",
          "type": "uint256"
        }
      ],
      "name": "URI",
      "type": "event"
    },
    {
      "inputs": [
        {
          "internalType": "address",
          "name": "",
          "type": "address"
        }
      ],
      "name": "admin",
      "outputs": [
        {
          "internalType": "bool",
          "name": "",
          "type": "bool"
        }
      ],
      "stateMutability": "view",
      "type": "function"
    },
    {
      "inputs": [
        {
          "internalType": "address",
          "name": "",
          "type": "address"
        }
      ],
      "name": "apprvStudent",
      "outputs": [
        {
          "internalType": "bool",
          "name": "",
          "type": "bool"
        }
      ],
      "stateMutability": "view",
      "type": "function"
    },
    {
      "inputs": [
        {
          "internalType": "address",
          "name": "account",
          "type": "address"
        },
        {
          "internalType": "uint256",
          "name": "id",
          "type": "uint256"
        }
      ],
      "name": "balanceOf",
      "outputs": [
        {
          "internalType": "uint256",
          "name": "",
          "type": "uint256"
        }
      ],
      "stateMutability": "view",
      "type": "function"
    },
    {
      "inputs": [
        {
          "internalType": "address[]",
          "name": "accounts",
          "type": "address[]"
        },
        {
          "internalType": "uint256[]",
          "name": "ids",
          "type": "uint256[]"
        }
      ],
      "name": "balanceOfBatch",
      "outputs": [
        {
          "internalType": "uint256[]",
          "name": "",
          "type": "uint256[]"
        }
      ],
      "stateMutability": "view",
      "type": "function"
    },
    {
      "inputs": [
        {
          "internalType": "uint256",
          "name": "",
          "type": "uint256"
        }
      ],
      "name": "idToCourses",
      "outputs": [
        {
          "internalType": "uint256",
          "name": "id",
          "type": "uint256"
        },
        {
          "internalType": "address payable",
          "name": "creator",
          "type": "address"
        },
        {
          "internalType": "uint256",
          "name": "price",
          "type": "uint256"
        },
        {
          "internalType": "uint256",
          "name": "amount",
          "type": "uint256"
        },
        {
          "internalType": "string",
          "name": "name",
          "type": "string"
        },
        {
          "internalType": "string",
          "name": "company",
          "type": "string"
        }
      ],
      "stateMutability": "view",
      "type": "function"
    },
    {
      "inputs": [
        {
          "internalType": "address",
          "name": "account",
          "type": "address"
        },
        {
          "internalType": "address",
          "name": "operator",
          "type": "address"
        }
      ],
      "name": "isApprovedForAll",
      "outputs": [
        {
          "internalType": "bool",
          "name": "",
          "type": "bool"
        }
      ],
      "stateMutability": "view",
      "type": "function"
    },
    {
      "inputs": [],
      "name": "nextAdminId",
      "outputs": [
        {
          "internalType": "uint256",
          "name": "",
          "type": "uint256"
        }
      ],
      "stateMutability": "view",
      "type": "function"
    },
    {
      "inputs": [],
      "name": "nextCourseId",
      "outputs": [
        {
          "internalType": "uint256",
          "name": "",
          "type": "uint256"
        }
      ],
      "stateMutability": "view",
      "type": "function"
    },
    {
      "inputs": [],
      "name": "nextStudentId",
      "outputs": [
        {
          "internalType": "uint256",
          "name": "",
          "type": "uint256"
        }
      ],
      "stateMutability": "view",
      "type": "function"
    },
    {
      "inputs": [],
      "name": "owner",
      "outputs": [
        {
          "internalType": "address",
          "name": "",
          "type": "address"
        }
      ],
      "stateMutability": "view",
      "type": "function"
    },
    {
      "inputs": [],
      "name": "renounceOwnership",
      "outputs": [],
      "stateMutability": "nonpayable",
      "type": "function"
    },
    {
      "inputs": [
        {
          "internalType": "uint256",
          "name": "_tokenId",
          "type": "uint256"
        },
        {
          "internalType": "uint256",
          "name": "_salePrice",
          "type": "uint256"
        }
      ],
      "name": "royaltyInfo",
      "outputs": [
        {
          "internalType": "address",
          "name": "",
          "type": "address"
        },
        {
          "internalType": "uint256",
          "name": "",
          "type": "uint256"
        }
      ],
      "stateMutability": "view",
      "type": "function"
    },
    {
      "inputs": [
        {
          "internalType": "address",
          "name": "from",
          "type": "address"
        },
        {
          "internalType": "address",
          "name": "to",
          "type": "address"
        },
        {
          "internalType": "uint256[]",
          "name": "ids",
          "type": "uint256[]"
        },
        {
          "internalType": "uint256[]",
          "name": "amounts",
          "type": "uint256[]"
        },
        {
          "internalType": "bytes",
          "name": "data",
          "type": "bytes"
        }
      ],
      "name": "safeBatchTransferFrom",
      "outputs": [],
      "stateMutability": "nonpayable",
      "type": "function"
    },
    {
      "inputs": [
        {
          "internalType": "address",
          "name": "from",
          "type": "address"
        },
        {
          "internalType": "address",
          "name": "to",
          "type": "address"
        },
        {
          "internalType": "uint256",
          "name": "id",
          "type": "uint256"
        },
        {
          "internalType": "uint256",
          "name": "amount",
          "type": "uint256"
        },
        {
          "internalType": "bytes",
          "name": "data",
          "type": "bytes"
        }
      ],
      "name": "safeTransferFrom",
      "outputs": [],
      "stateMutability": "nonpayable",
      "type": "function"
    },
    {
      "inputs": [
        {
          "internalType": "address",
          "name": "operator",
          "type": "address"
        },
        {
          "internalType": "bool",
          "name": "approved",
          "type": "bool"
        }
      ],
      "name": "setApprovalForAll",
      "outputs": [],
      "stateMutability": "nonpayable",
      "type": "function"
    },
    {
      "inputs": [
        {
          "internalType": "address",
          "name": "",
          "type": "address"
        }
      ],
      "name": "students",
      "outputs": [
        {
          "internalType": "uint256",
          "name": "",
          "type": "uint256"
        }
      ],
      "stateMutability": "view",
      "type": "function"
    },
    {
      "inputs": [
        {
          "internalType": "address",
          "name": "newOwner",
          "type": "address"
        }
      ],
      "name": "transferOwnership",
      "outputs": [],
      "stateMutability": "nonpayable",
      "type": "function"
    },
    {
      "inputs": [
        {
          "internalType": "uint256",
          "name": "",
          "type": "uint256"
        }
      ],
      "name": "uri",
      "outputs": [
        {
          "internalType": "string",
          "name": "",
          "type": "string"
        }
      ],
      "stateMutability": "view",
      "type": "function"
    },
    {
      "inputs": [
        {
          "internalType": "address",
          "name": "_admin",
          "type": "address"
        }
      ],
      "name": "approveAdmin",
      "outputs": [],
      "stateMutability": "nonpayable",
      "type": "function"
    },
    {
      "inputs": [
        {
          "internalType": "address",
          "name": "_student",
          "type": "address"
        }
      ],
      "name": "setStudent",
      "outputs": [],
      "stateMutability": "nonpayable",
      "type": "function"
    },
    {
      "inputs": [
        {
          "internalType": "uint256",
          "name": "_id",
          "type": "uint256"
        },
        {
          "internalType": "uint256",
          "name": "_amount",
          "type": "uint256"
        },
        {
          "internalType": "uint256",
          "name": "_price",
          "type": "uint256"
        },
        {
          "internalType": "string",
          "name": "_name",
          "type": "string"
        },
        {
          "internalType": "string",
          "name": "_company",
          "type": "string"
        }
      ],
      "name": "createCourse",
      "outputs": [
        {
          "internalType": "uint256",
          "name": "",
          "type": "uint256"
        }
      ],
      "stateMutability": "payable",
      "type": "function"
    },
    {
      "inputs": [
        {
          "internalType": "uint256",
          "name": "_id",
          "type": "uint256"
        },
        {
          "internalType": "uint256",
          "name": "_amount",
          "type": "uint256"
        }
      ],
      "name": "createMarketSale",
      "outputs": [],
      "stateMutability": "payable",
      "type": "function"
    },
    {
      "inputs": [
        {
          "internalType": "bytes4",
          "name": "interfaceId",
          "type": "bytes4"
        }
      ],
      "name": "supportsInterface",
      "outputs": [
        {
          "internalType": "bool",
          "name": "",
          "type": "bool"
        }
      ],
      "stateMutability": "view",
      "type": "function"
    },
    {
      "inputs": [
        {
          "internalType": "address",
          "name": "",
          "type": "address"
        },
        {
          "internalType": "address",
          "name": "",
          "type": "address"
        },
        {
          "internalType": "uint256",
          "name": "",
          "type": "uint256"
        },
        {
          "internalType": "uint256",
          "name": "",
          "type": "uint256"
        },
        {
          "internalType": "bytes",
          "name": "",
          "type": "bytes"
        }
      ],
      "name": "onERC1155Received",
      "outputs": [
        {
          "internalType": "bytes4",
          "name": "",
          "type": "bytes4"
        }
      ],
      "stateMutability": "nonpayable",
      "type": "function"
    },
    {
      "inputs": [
        {
          "internalType": "address",
          "name": "",
          "type": "address"
        },
        {
          "internalType": "address",
          "name": "",
          "type": "address"
        },
        {
          "internalType": "uint256[]",
          "name": "",
          "type": "uint256[]"
        },
        {
          "internalType": "uint256[]",
          "name": "",
          "type": "uint256[]"
        },
        {
          "internalType": "bytes",
          "name": "",
          "type": "bytes"
        }
      ],
      "name": "onERC1155BatchReceived",
      "outputs": [
        {
          "internalType": "bytes4",
          "name": "",
          "type": "bytes4"
        }
      ],
      "stateMutability": "nonpayable",
      "type": "function"
    },
    {
      "inputs": [
        {
          "internalType": "uint256",
          "name": "_listingPrice",
          "type": "uint256"
        }
      ],
      "name": "updateListingPrice",
      "outputs": [],
      "stateMutability": "payable",
      "type": "function"
    },
    {
      "inputs": [],
      "name": "getListingPrice",
      "outputs": [
        {
          "internalType": "uint256",
          "name": "",
          "type": "uint256"
        }
      ],
      "stateMutability": "view",
      "type": "function"
    }
  ],
  "bytecode": "0x60806040526658d15e176280006010553480156200001c57600080fd5b5060405180608001604052806059815260200162004bea6059913962000048816200009260201b60201c565b50620000696200005d620000ae60201b60201c565b620000b660201b60201c565b6200008c6200007d620000ae60201b60201c565b6101f46200017c60201b60201c565b6200055a565b8060029080519060200190620000aa9291906200032a565b5050565b600033905090565b6000600560009054906101000a900473ffffffffffffffffffffffffffffffffffffffff16905081600560006101000a81548173ffffffffffffffffffffffffffffffffffffffff021916908373ffffffffffffffffffffffffffffffffffffffff1602179055508173ffffffffffffffffffffffffffffffffffffffff168173ffffffffffffffffffffffffffffffffffffffff167f8be0079c531659141344cd1fd0a4f28419497f9722a3daafe3b4186f6b6457e060405160405180910390a35050565b6200018c6200032060201b60201c565b6bffffffffffffffffffffffff16816bffffffffffffffffffffffff161115620001ed576040517f08c379a0000000000000000000000000000000000000000000000000000000008152600401620001e49062000461565b60405180910390fd5b600073ffffffffffffffffffffffffffffffffffffffff168273ffffffffffffffffffffffffffffffffffffffff16141562000260576040517f08c379a00000000000000000000000000000000000000000000000000000000081526004016200025790620004d3565b60405180910390fd5b60405180604001604052808373ffffffffffffffffffffffffffffffffffffffff168152602001826bffffffffffffffffffffffff16815250600360008201518160000160006101000a81548173ffffffffffffffffffffffffffffffffffffffff021916908373ffffffffffffffffffffffffffffffffffffffff16021790555060208201518160000160146101000a8154816bffffffffffffffffffffffff02191690836bffffffffffffffffffffffff1602179055509050505050565b6000612710905090565b828054620003389062000524565b90600052602060002090601f0160209004810192826200035c5760008555620003a8565b82601f106200037757805160ff1916838001178555620003a8565b82800160010185558215620003a8579182015b82811115620003a75782518255916020019190600101906200038a565b5b509050620003b79190620003bb565b5090565b5b80821115620003d6576000816000905550600101620003bc565b5090565b600082825260208201905092915050565b7f455243323938313a20726f79616c7479206665652077696c6c2065786365656460008201527f2073616c65507269636500000000000000000000000000000000000000000000602082015250565b600062000449602a83620003da565b91506200045682620003eb565b604082019050919050565b600060208201905081810360008301526200047c816200043a565b9050919050565b7f455243323938313a20696e76616c696420726563656976657200000000000000600082015250565b6000620004bb601983620003da565b9150620004c88262000483565b602082019050919050565b60006020820190508181036000830152620004ee81620004ac565b9050919050565b7f4e487b7100000000000000000000000000000000000000000000000000000000600052602260045260246000fd5b600060028204905060018216806200053d57607f821691505b60208210811415620005545762000553620004f5565b5b50919050565b614680806200056a6000396000f3fe60806040526004361061019b5760003560e01c806388f392f6116100ec578063bc197c811161008a578063e985e9c511610064578063e985e9c514610602578063f23a6e611461063f578063f242432a1461067c578063f2fde38b146106a55761019b565b8063bc197c811461055d578063bebb1eed1461059a578063caae5135146105c55761019b565b8063a22cb465116100c6578063a22cb465146104b0578063a6c807a9146104d9578063a8ca251b14610516578063ae677aa3146105415761019b565b806388f392f6146104275780638da5cb5b14610469578063a1c11ca8146104945761019b565b80632a55205a1161015957806363a846f81161013357806363a846f81461037f5780636d73e669146103bc578063715018a6146103e55780637d83daf2146103fc5761019b565b80632a55205a146102db5780632eb2c2d6146103195780634e1273f4146103425761019b565b8062fdd58e146101a057806301f115f9146101dd57806301ffc9a7146102065780630e89341c1461024357806312e855851461028057806326f766ce146102ab575b600080fd5b3480156101ac57600080fd5b506101c760048036038101906101c29190612b46565b6106ce565b6040516101d49190612b95565b60405180910390f35b3480156101e957600080fd5b5061020460048036038101906101ff9190612bb0565b610797565b005b34801561021257600080fd5b5061022d60048036038101906102289190612c35565b61089e565b60405161023a9190612c7d565b60405180910390f35b34801561024f57600080fd5b5061026a60048036038101906102659190612c98565b6108b0565b6040516102779190612d5e565b60405180910390f35b34801561028c57600080fd5b50610295610944565b6040516102a29190612b95565b60405180910390f35b6102c560048036038101906102c09190612eb5565b61094e565b6040516102d29190612b95565b60405180910390f35b3480156102e757600080fd5b5061030260048036038101906102fd9190612f68565b610a4a565b604051610310929190612fb7565b60405180910390f35b34801561032557600080fd5b50610340600480360381019061033b9190613149565b610c35565b005b34801561034e57600080fd5b50610369600480360381019061036491906132db565b610cd6565b6040516103769190613411565b60405180910390f35b34801561038b57600080fd5b506103a660048036038101906103a19190612bb0565b610def565b6040516103b39190612c7d565b60405180910390f35b3480156103c857600080fd5b506103e360048036038101906103de9190612bb0565b610e0f565b005b3480156103f157600080fd5b506103fa610f92565b005b34801561040857600080fd5b5061041161101a565b60405161041e9190612b95565b60405180910390f35b34801561043357600080fd5b5061044e60048036038101906104499190612c98565b611020565b60405161046096959493929190613454565b60405180910390f35b34801561047557600080fd5b5061047e61118c565b60405161048b91906134c3565b60405180910390f35b6104ae60048036038101906104a99190612f68565b6111b6565b005b3480156104bc57600080fd5b506104d760048036038101906104d2919061350a565b6112c9565b005b3480156104e557600080fd5b5061050060048036038101906104fb9190612bb0565b6112df565b60405161050d9190612b95565b60405180910390f35b34801561052257600080fd5b5061052b6112f7565b6040516105389190612b95565b60405180910390f35b61055b60048036038101906105569190612c98565b6112fd565b005b34801561056957600080fd5b50610584600480360381019061057f9190613149565b611383565b6040516105919190613559565b60405180910390f35b3480156105a657600080fd5b506105af611398565b6040516105bc9190612b95565b60405180910390f35b3480156105d157600080fd5b506105ec60048036038101906105e79190612bb0565b61139e565b6040516105f99190612c7d565b60405180910390f35b34801561060e57600080fd5b5061062960048036038101906106249190613574565b6113be565b6040516106369190612c7d565b60405180910390f35b34801561064b57600080fd5b50610666600480360381019061066191906135b4565b611452565b6040516106739190613559565b60405180910390f35b34801561068857600080fd5b506106a3600480360381019061069e91906135b4565b611467565b005b3480156106b157600080fd5b506106cc60048036038101906106c79190612bb0565b611508565b005b60008073ffffffffffffffffffffffffffffffffffffffff168373ffffffffffffffffffffffffffffffffffffffff16141561073f576040517f08c379a0000000000000000000000000000000000000000000000000000000008152600401610736906136bd565b60405180910390fd5b60008083815260200190815260200160002060008473ffffffffffffffffffffffffffffffffffffffff1673ffffffffffffffffffffffffffffffffffffffff16815260200190815260200160002054905092915050565b60011515600b60008373ffffffffffffffffffffffffffffffffffffffff1673ffffffffffffffffffffffffffffffffffffffff16815260200190815260200160002060009054906101000a900460ff161515141561082b576040517f08c379a00000000000000000000000000000000000000000000000000000000081526004016108229061374f565b60405180910390fd5b6001600c60008373ffffffffffffffffffffffffffffffffffffffff1673ffffffffffffffffffffffffffffffffffffffff16815260200190815260200160002060006101000a81548160ff021916908315150217905550600f60008154809291906108969061379e565b919050555050565b60006108a982611600565b9050919050565b6060600280546108bf90613816565b80601f01602080910402602001604051908101604052809291908181526020018280546108eb90613816565b80156109385780601f1061090d57610100808354040283529160200191610938565b820191906000526020600020905b81548152906001019060200180831161091b57829003601f168201915b50505050509050919050565b6000601054905090565b600060011515600b600061096061167a565b73ffffffffffffffffffffffffffffffffffffffff1673ffffffffffffffffffffffffffffffffffffffff16815260200190815260200160002060009054906101000a900460ff161515146109ea576040517f08c379a00000000000000000000000000000000000000000000000000000000081526004016109e190613894565b60405180910390fd5b6109fd6109f561167a565b6101f4611682565b610a076006611818565b6000610a13600661182e565b9050610a303388886040518060200160405280600081525061183c565b610a3d87868887876119d2565b8091505095945050505050565b6000806000600460008681526020019081526020016000206040518060400160405290816000820160009054906101000a900473ffffffffffffffffffffffffffffffffffffffff1673ffffffffffffffffffffffffffffffffffffffff1673ffffffffffffffffffffffffffffffffffffffff1681526020016000820160149054906101000a90046bffffffffffffffffffffffff166bffffffffffffffffffffffff166bffffffffffffffffffffffff16815250509050600073ffffffffffffffffffffffffffffffffffffffff16816000015173ffffffffffffffffffffffffffffffffffffffff161415610be05760036040518060400160405290816000820160009054906101000a900473ffffffffffffffffffffffffffffffffffffffff1673ffffffffffffffffffffffffffffffffffffffff1673ffffffffffffffffffffffffffffffffffffffff1681526020016000820160149054906101000a90046bffffffffffffffffffffffff166bffffffffffffffffffffffff166bffffffffffffffffffffffff168152505090505b6000610bea611c87565b6bffffffffffffffffffffffff1682602001516bffffffffffffffffffffffff1686610c1691906138b4565b610c20919061393d565b90508160000151819350935050509250929050565b610c3d61167a565b73ffffffffffffffffffffffffffffffffffffffff168573ffffffffffffffffffffffffffffffffffffffff161480610c835750610c8285610c7d61167a565b6113be565b5b610cc2576040517f08c379a0000000000000000000000000000000000000000000000000000000008152600401610cb9906139e0565b60405180910390fd5b610ccf8585858585611c91565b5050505050565b60608151835114610d1c576040517f08c379a0000000000000000000000000000000000000000000000000000000008152600401610d1390613a72565b60405180910390fd5b6000835167ffffffffffffffff811115610d3957610d38612d8a565b5b604051908082528060200260200182016040528015610d675781602001602082028036833780820191505090505b50905060005b8451811015610de457610db4858281518110610d8c57610d8b613a92565b5b6020026020010151858381518110610da757610da6613a92565b5b60200260200101516106ce565b828281518110610dc757610dc6613a92565b5b60200260200101818152505080610ddd9061379e565b9050610d6d565b508091505092915050565b600b6020528060005260406000206000915054906101000a900460ff1681565b610e1761167a565b73ffffffffffffffffffffffffffffffffffffffff16610e3561118c565b73ffffffffffffffffffffffffffffffffffffffff1614610e8b576040517f08c379a0000000000000000000000000000000000000000000000000000000008152600401610e8290613b0d565b60405180910390fd5b60011515600b60008373ffffffffffffffffffffffffffffffffffffffff1673ffffffffffffffffffffffffffffffffffffffff16815260200190815260200160002060009054906101000a900460ff1615151415610f1f576040517f08c379a0000000000000000000000000000000000000000000000000000000008152600401610f1690613b79565b60405180910390fd5b6001600b60008373ffffffffffffffffffffffffffffffffffffffff1673ffffffffffffffffffffffffffffffffffffffff16815260200190815260200160002060006101000a81548160ff021916908315150217905550600e6000815480929190610f8a9061379e565b919050555050565b610f9a61167a565b73ffffffffffffffffffffffffffffffffffffffff16610fb861118c565b73ffffffffffffffffffffffffffffffffffffffff161461100e576040517f08c379a000000000000000000000000000000000000000000000000000000000815260040161100590613b0d565b60405180910390fd5b6110186000611fa5565b565b600d5481565b60086020528060005260406000206000915090508060000154908060010160009054906101000a900473ffffffffffffffffffffffffffffffffffffffff169080600201549080600301549080600401805461107b90613816565b80601f01602080910402602001604051908101604052809291908181526020018280546110a790613816565b80156110f45780601f106110c9576101008083540402835291602001916110f4565b820191906000526020600020905b8154815290600101906020018083116110d757829003601f168201915b50505050509080600501805461110990613816565b80601f016020809104026020016040519081016040528092919081815260200182805461113590613816565b80156111825780601f1061115757610100808354040283529160200191611182565b820191906000526020600020905b81548152906001019060200180831161116557829003601f168201915b5050505050905086565b6000600560009054906101000a900473ffffffffffffffffffffffffffffffffffffffff16905090565b60011515600c60006111c661167a565b73ffffffffffffffffffffffffffffffffffffffff1673ffffffffffffffffffffffffffffffffffffffff16815260200190815260200160002060009054906101000a900460ff16151514611250576040517f08c379a000000000000000000000000000000000000000000000000000000000815260040161124790613be5565b60405180910390fd5b600060086000848152602001908152602001600020600001549050611287303383856040518060200160405280600081525061206b565b600160086000858152602001908152602001600020600301546112aa9190613c05565b6008600085815260200190815260200160002060030181905550505050565b6112db6112d461167a565b83836122ed565b5050565b60096020528060005260406000206000915090505481565b600f5481565b61130561167a565b73ffffffffffffffffffffffffffffffffffffffff1661132361118c565b73ffffffffffffffffffffffffffffffffffffffff1614611379576040517f08c379a000000000000000000000000000000000000000000000000000000000815260040161137090613b0d565b60405180910390fd5b8060108190555050565b600063bc197c8160e01b905095945050505050565b600e5481565b600c6020528060005260406000206000915054906101000a900460ff1681565b6000600160008473ffffffffffffffffffffffffffffffffffffffff1673ffffffffffffffffffffffffffffffffffffffff16815260200190815260200160002060008373ffffffffffffffffffffffffffffffffffffffff1673ffffffffffffffffffffffffffffffffffffffff16815260200190815260200160002060009054906101000a900460ff16905092915050565b600063f23a6e6160e01b905095945050505050565b61146f61167a565b73ffffffffffffffffffffffffffffffffffffffff168573ffffffffffffffffffffffffffffffffffffffff1614806114b557506114b4856114af61167a565b6113be565b5b6114f4576040517f08c379a00000000000000000000000000000000000000000000000000000000081526004016114eb90613cab565b60405180910390fd5b611501858585858561206b565b5050505050565b61151061167a565b73ffffffffffffffffffffffffffffffffffffffff1661152e61118c565b73ffffffffffffffffffffffffffffffffffffffff1614611584576040517f08c379a000000000000000000000000000000000000000000000000000000000815260040161157b90613b0d565b60405180910390fd5b600073ffffffffffffffffffffffffffffffffffffffff168173ffffffffffffffffffffffffffffffffffffffff1614156115f4576040517f08c379a00000000000000000000000000000000000000000000000000000000081526004016115eb90613d3d565b60405180910390fd5b6115fd81611fa5565b50565b60007f2a55205a000000000000000000000000000000000000000000000000000000007bffffffffffffffffffffffffffffffffffffffffffffffffffffffff1916827bffffffffffffffffffffffffffffffffffffffffffffffffffffffff1916148061167357506116728261245a565b5b9050919050565b600033905090565b61168a611c87565b6bffffffffffffffffffffffff16816bffffffffffffffffffffffff1611156116e8576040517f08c379a00000000000000000000000000000000000000000000000000000000081526004016116df90613dcf565b60405180910390fd5b600073ffffffffffffffffffffffffffffffffffffffff168273ffffffffffffffffffffffffffffffffffffffff161415611758576040517f08c379a000000000000000000000000000000000000000000000000000000000815260040161174f90613e3b565b60405180910390fd5b60405180604001604052808373ffffffffffffffffffffffffffffffffffffffff168152602001826bffffffffffffffffffffffff16815250600360008201518160000160006101000a81548173ffffffffffffffffffffffffffffffffffffffff021916908373ffffffffffffffffffffffffffffffffffffffff16021790555060208201518160000160146101000a8154816bffffffffffffffffffffffff02191690836bffffffffffffffffffffffff1602179055509050505050565b6001816000016000828254019250508190555050565b600081600001549050919050565b600073ffffffffffffffffffffffffffffffffffffffff168473ffffffffffffffffffffffffffffffffffffffff1614156118ac576040517f08c379a00000000000000000000000000000000000000000000000000000000081526004016118a390613ecd565b60405180910390fd5b60006118b661167a565b90506118d7816000876118c88861253c565b6118d18861253c565b876125b6565b8260008086815260200190815260200160002060008773ffffffffffffffffffffffffffffffffffffffff1673ffffffffffffffffffffffffffffffffffffffff16815260200190815260200160002060008282546119369190613eed565b925050819055508473ffffffffffffffffffffffffffffffffffffffff16600073ffffffffffffffffffffffffffffffffffffffff168273ffffffffffffffffffffffffffffffffffffffff167fc3d58168c5ae7397731d063d5bbf3d657854427343f4c083240f7aacaa2d0f6287876040516119b4929190613f43565b60405180910390a46119cb816000878787876125be565b5050505050565b60011515600b60006119e261167a565b73ffffffffffffffffffffffffffffffffffffffff1673ffffffffffffffffffffffffffffffffffffffff16815260200190815260200160002060009054906101000a900460ff16151514611a6c576040517f08c379a0000000000000000000000000000000000000000000000000000000008152600401611a6390613894565b60405180910390fd5b60001515600a600087815260200190815260200160002060009054906101000a900460ff16151514611ad3576040517f08c379a0000000000000000000000000000000000000000000000000000000008152600401611aca90613fb8565b60405180910390fd5b60008311611b16576040517f08c379a0000000000000000000000000000000000000000000000000000000008152600401611b0d90614024565b60405180910390fd5b6040518060c001604052808681526020013373ffffffffffffffffffffffffffffffffffffffff16815260200185815260200184815260200183815260200182815250600860008781526020019081526020016000206000820151816000015560208201518160010160006101000a81548173ffffffffffffffffffffffffffffffffffffffff021916908373ffffffffffffffffffffffffffffffffffffffff16021790555060408201518160020155606082015181600301556080820151816004019080519060200190611bed9291906129fb565b5060a0820151816005019080519060200190611c0a9291906129fb565b50905050611c2a333087876040518060200160405280600081525061206b565b847feff2bb94a05d67c921f29c2a8bc9131077336dd89e41786473c96d549225fd2633308688604051611c609493929190614044565b60405180910390a2600d6000815480929190611c7b9061379e565b91905055505050505050565b6000612710905090565b8151835114611cd5576040517f08c379a0000000000000000000000000000000000000000000000000000000008152600401611ccc906140fb565b60405180910390fd5b600073ffffffffffffffffffffffffffffffffffffffff168473ffffffffffffffffffffffffffffffffffffffff161415611d45576040517f08c379a0000000000000000000000000000000000000000000000000000000008152600401611d3c9061418d565b60405180910390fd5b6000611d4f61167a565b9050611d5f8187878787876125b6565b60005b8451811015611f10576000858281518110611d8057611d7f613a92565b5b602002602001015190506000858381518110611d9f57611d9e613a92565b5b60200260200101519050600080600084815260200190815260200160002060008b73ffffffffffffffffffffffffffffffffffffffff1673ffffffffffffffffffffffffffffffffffffffff16815260200190815260200160002054905081811015611e40576040517f08c379a0000000000000000000000000000000000000000000000000000000008152600401611e379061421f565b60405180910390fd5b81810360008085815260200190815260200160002060008c73ffffffffffffffffffffffffffffffffffffffff1673ffffffffffffffffffffffffffffffffffffffff168152602001908152602001600020819055508160008085815260200190815260200160002060008b73ffffffffffffffffffffffffffffffffffffffff1673ffffffffffffffffffffffffffffffffffffffff1681526020019081526020016000206000828254611ef59190613eed565b9250508190555050505080611f099061379e565b9050611d62565b508473ffffffffffffffffffffffffffffffffffffffff168673ffffffffffffffffffffffffffffffffffffffff168273ffffffffffffffffffffffffffffffffffffffff167f4a39dc06d4c0dbc64b70af90fd698a233a518aa5d07e595d983b8c0526c8f7fb8787604051611f8792919061423f565b60405180910390a4611f9d818787878787612796565b505050505050565b6000600560009054906101000a900473ffffffffffffffffffffffffffffffffffffffff16905081600560006101000a81548173ffffffffffffffffffffffffffffffffffffffff021916908373ffffffffffffffffffffffffffffffffffffffff1602179055508173ffffffffffffffffffffffffffffffffffffffff168173ffffffffffffffffffffffffffffffffffffffff167f8be0079c531659141344cd1fd0a4f28419497f9722a3daafe3b4186f6b6457e060405160405180910390a35050565b600073ffffffffffffffffffffffffffffffffffffffff168473ffffffffffffffffffffffffffffffffffffffff1614156120db576040517f08c379a00000000000000000000000000000000000000000000000000000000081526004016120d29061418d565b60405180910390fd5b60006120e561167a565b90506121058187876120f68861253c565b6120ff8861253c565b876125b6565b600080600086815260200190815260200160002060008873ffffffffffffffffffffffffffffffffffffffff1673ffffffffffffffffffffffffffffffffffffffff1681526020019081526020016000205490508381101561219c576040517f08c379a00000000000000000000000000000000000000000000000000000000081526004016121939061421f565b60405180910390fd5b83810360008087815260200190815260200160002060008973ffffffffffffffffffffffffffffffffffffffff1673ffffffffffffffffffffffffffffffffffffffff168152602001908152602001600020819055508360008087815260200190815260200160002060008873ffffffffffffffffffffffffffffffffffffffff1673ffffffffffffffffffffffffffffffffffffffff16815260200190815260200160002060008282546122519190613eed565b925050819055508573ffffffffffffffffffffffffffffffffffffffff168773ffffffffffffffffffffffffffffffffffffffff168373ffffffffffffffffffffffffffffffffffffffff167fc3d58168c5ae7397731d063d5bbf3d657854427343f4c083240f7aacaa2d0f6288886040516122ce929190613f43565b60405180910390a46122e48288888888886125be565b50505050505050565b8173ffffffffffffffffffffffffffffffffffffffff168373ffffffffffffffffffffffffffffffffffffffff16141561235c576040517f08c379a0000000000000000000000000000000000000000000000000000000008152600401612353906142e8565b60405180910390fd5b80600160008573ffffffffffffffffffffffffffffffffffffffff1673ffffffffffffffffffffffffffffffffffffffff16815260200190815260200160002060008473ffffffffffffffffffffffffffffffffffffffff1673ffffffffffffffffffffffffffffffffffffffff16815260200190815260200160002060006101000a81548160ff0219169083151502179055508173ffffffffffffffffffffffffffffffffffffffff168373ffffffffffffffffffffffffffffffffffffffff167f17307eab39ab6107e8899845ad3d59bd9653f200f220920489ca2b5937696c318360405161244d9190612c7d565b60405180910390a3505050565b60007fd9b67a26000000000000000000000000000000000000000000000000000000007bffffffffffffffffffffffffffffffffffffffffffffffffffffffff1916827bffffffffffffffffffffffffffffffffffffffffffffffffffffffff1916148061252557507f0e89341c000000000000000000000000000000000000000000000000000000007bffffffffffffffffffffffffffffffffffffffffffffffffffffffff1916827bffffffffffffffffffffffffffffffffffffffffffffffffffffffff1916145b8061253557506125348261296e565b5b9050919050565b60606000600167ffffffffffffffff81111561255b5761255a612d8a565b5b6040519080825280602002602001820160405280156125895781602001602082028036833780820191505090505b50905082816000815181106125a1576125a0613a92565b5b60200260200101818152505080915050919050565b505050505050565b6125dd8473ffffffffffffffffffffffffffffffffffffffff166129d8565b1561278e578373ffffffffffffffffffffffffffffffffffffffff1663f23a6e6187878686866040518663ffffffff1660e01b815260040161262395949392919061435d565b6020604051808303816000875af192505050801561265f57506040513d601f19601f8201168201806040525081019061265c91906143cc565b60015b6127055761266b614406565b806308c379a014156126c85750612680614428565b8061268b57506126ca565b806040517f08c379a00000000000000000000000000000000000000000000000000000000081526004016126bf9190612d5e565b60405180910390fd5b505b6040517f08c379a00000000000000000000000000000000000000000000000000000000081526004016126fc90614530565b60405180910390fd5b63f23a6e6160e01b7bffffffffffffffffffffffffffffffffffffffffffffffffffffffff1916817bffffffffffffffffffffffffffffffffffffffffffffffffffffffff19161461278c576040517f08c379a0000000000000000000000000000000000000000000000000000000008152600401612783906145c2565b60405180910390fd5b505b505050505050565b6127b58473ffffffffffffffffffffffffffffffffffffffff166129d8565b15612966578373ffffffffffffffffffffffffffffffffffffffff1663bc197c8187878686866040518663ffffffff1660e01b81526004016127fb9594939291906145e2565b6020604051808303816000875af192505050801561283757506040513d601f19601f8201168201806040525081019061283491906143cc565b60015b6128dd57612843614406565b806308c379a014156128a05750612858614428565b8061286357506128a2565b806040517f08c379a00000000000000000000000000000000000000000000000000000000081526004016128979190612d5e565b60405180910390fd5b505b6040517f08c379a00000000000000000000000000000000000000000000000000000000081526004016128d490614530565b60405180910390fd5b63bc197c8160e01b7bffffffffffffffffffffffffffffffffffffffffffffffffffffffff1916817bffffffffffffffffffffffffffffffffffffffffffffffffffffffff191614612964576040517f08c379a000000000000000000000000000000000000000000000000000000000815260040161295b906145c2565b60405180910390fd5b505b505050505050565b60007f01ffc9a7000000000000000000000000000000000000000000000000000000007bffffffffffffffffffffffffffffffffffffffffffffffffffffffff1916827bffffffffffffffffffffffffffffffffffffffffffffffffffffffff1916149050919050565b6000808273ffffffffffffffffffffffffffffffffffffffff163b119050919050565b828054612a0790613816565b90600052602060002090601f016020900481019282612a295760008555612a70565b82601f10612a4257805160ff1916838001178555612a70565b82800160010185558215612a70579182015b82811115612a6f578251825591602001919060010190612a54565b5b509050612a7d9190612a81565b5090565b5b80821115612a9a576000816000905550600101612a82565b5090565b6000604051905090565b600080fd5b600080fd5b600073ffffffffffffffffffffffffffffffffffffffff82169050919050565b6000612add82612ab2565b9050919050565b612aed81612ad2565b8114612af857600080fd5b50565b600081359050612b0a81612ae4565b92915050565b6000819050919050565b612b2381612b10565b8114612b2e57600080fd5b50565b600081359050612b4081612b1a565b92915050565b60008060408385031215612b5d57612b5c612aa8565b5b6000612b6b85828601612afb565b9250506020612b7c85828601612b31565b9150509250929050565b612b8f81612b10565b82525050565b6000602082019050612baa6000830184612b86565b92915050565b600060208284031215612bc657612bc5612aa8565b5b6000612bd484828501612afb565b91505092915050565b60007fffffffff0000000000000000000000000000000000000000000000000000000082169050919050565b612c1281612bdd565b8114612c1d57600080fd5b50565b600081359050612c2f81612c09565b92915050565b600060208284031215612c4b57612c4a612aa8565b5b6000612c5984828501612c20565b91505092915050565b60008115159050919050565b612c7781612c62565b82525050565b6000602082019050612c926000830184612c6e565b92915050565b600060208284031215612cae57612cad612aa8565b5b6000612cbc84828501612b31565b91505092915050565b600081519050919050565b600082825260208201905092915050565b60005b83811015612cff578082015181840152602081019050612ce4565b83811115612d0e576000848401525b50505050565b6000601f19601f8301169050919050565b6000612d3082612cc5565b612d3a8185612cd0565b9350612d4a818560208601612ce1565b612d5381612d14565b840191505092915050565b60006020820190508181036000830152612d788184612d25565b905092915050565b600080fd5b600080fd5b7f4e487b7100000000000000000000000000000000000000000000000000000000600052604160045260246000fd5b612dc282612d14565b810181811067ffffffffffffffff82111715612de157612de0612d8a565b5b80604052505050565b6000612df4612a9e565b9050612e008282612db9565b919050565b600067ffffffffffffffff821115612e2057612e1f612d8a565b5b612e2982612d14565b9050602081019050919050565b82818337600083830152505050565b6000612e58612e5384612e05565b612dea565b905082815260208101848484011115612e7457612e73612d85565b5b612e7f848285612e36565b509392505050565b600082601f830112612e9c57612e9b612d80565b5b8135612eac848260208601612e45565b91505092915050565b600080600080600060a08688031215612ed157612ed0612aa8565b5b6000612edf88828901612b31565b9550506020612ef088828901612b31565b9450506040612f0188828901612b31565b935050606086013567ffffffffffffffff811115612f2257612f21612aad565b5b612f2e88828901612e87565b925050608086013567ffffffffffffffff811115612f4f57612f4e612aad565b5b612f5b88828901612e87565b9150509295509295909350565b60008060408385031215612f7f57612f7e612aa8565b5b6000612f8d85828601612b31565b9250506020612f9e85828601612b31565b9150509250929050565b612fb181612ad2565b82525050565b6000604082019050612fcc6000830185612fa8565b612fd96020830184612b86565b9392505050565b600067ffffffffffffffff821115612ffb57612ffa612d8a565b5b602082029050602081019050919050565b600080fd5b600061302461301f84612fe0565b612dea565b905080838252602082019050602084028301858111156130475761304661300c565b5b835b81811015613070578061305c8882612b31565b845260208401935050602081019050613049565b5050509392505050565b600082601f83011261308f5761308e612d80565b5b813561309f848260208601613011565b91505092915050565b600067ffffffffffffffff8211156130c3576130c2612d8a565b5b6130cc82612d14565b9050602081019050919050565b60006130ec6130e7846130a8565b612dea565b90508281526020810184848401111561310857613107612d85565b5b613113848285612e36565b509392505050565b600082601f8301126131305761312f612d80565b5b81356131408482602086016130d9565b91505092915050565b600080600080600060a0868803121561316557613164612aa8565b5b600061317388828901612afb565b955050602061318488828901612afb565b945050604086013567ffffffffffffffff8111156131a5576131a4612aad565b5b6131b18882890161307a565b935050606086013567ffffffffffffffff8111156131d2576131d1612aad565b5b6131de8882890161307a565b925050608086013567ffffffffffffffff8111156131ff576131fe612aad565b5b61320b8882890161311b565b9150509295509295909350565b600067ffffffffffffffff82111561323357613232612d8a565b5b602082029050602081019050919050565b600061325761325284613218565b612dea565b9050808382526020820190506020840283018581111561327a5761327961300c565b5b835b818110156132a3578061328f8882612afb565b84526020840193505060208101905061327c565b5050509392505050565b600082601f8301126132c2576132c1612d80565b5b81356132d2848260208601613244565b91505092915050565b600080604083850312156132f2576132f1612aa8565b5b600083013567ffffffffffffffff8111156133105761330f612aad565b5b61331c858286016132ad565b925050602083013567ffffffffffffffff81111561333d5761333c612aad565b5b6133498582860161307a565b9150509250929050565b600081519050919050565b600082825260208201905092915050565b6000819050602082019050919050565b61338881612b10565b82525050565b600061339a838361337f565b60208301905092915050565b6000602082019050919050565b60006133be82613353565b6133c8818561335e565b93506133d38361336f565b8060005b838110156134045781516133eb888261338e565b97506133f6836133a6565b9250506001810190506133d7565b5085935050505092915050565b6000602082019050818103600083015261342b81846133b3565b905092915050565b600061343e82612ab2565b9050919050565b61344e81613433565b82525050565b600060c0820190506134696000830189612b86565b6134766020830188613445565b6134836040830187612b86565b6134906060830186612b86565b81810360808301526134a28185612d25565b905081810360a08301526134b68184612d25565b9050979650505050505050565b60006020820190506134d86000830184612fa8565b92915050565b6134e781612c62565b81146134f257600080fd5b50565b600081359050613504816134de565b92915050565b6000806040838503121561352157613520612aa8565b5b600061352f85828601612afb565b9250506020613540858286016134f5565b9150509250929050565b61355381612bdd565b82525050565b600060208201905061356e600083018461354a565b92915050565b6000806040838503121561358b5761358a612aa8565b5b600061359985828601612afb565b92505060206135aa85828601612afb565b9150509250929050565b600080600080600060a086880312156135d0576135cf612aa8565b5b60006135de88828901612afb565b95505060206135ef88828901612afb565b945050604061360088828901612b31565b935050606061361188828901612b31565b925050608086013567ffffffffffffffff81111561363257613631612aad565b5b61363e8882890161311b565b9150509295509295909350565b7f455243313135353a2062616c616e636520717565727920666f7220746865207a60008201527f65726f2061646472657373000000000000000000000000000000000000000000602082015250565b60006136a7602b83612cd0565b91506136b28261364b565b604082019050919050565b600060208201905081810360008301526136d68161369a565b9050919050565b7f416c726561647920616e2061646d696e2e20546869732061646472657373206360008201527f616e6e6f742062652073747564656e7400000000000000000000000000000000602082015250565b6000613739603083612cd0565b9150613744826136dd565b604082019050919050565b600060208201905081810360008301526137688161372c565b9050919050565b7f4e487b7100000000000000000000000000000000000000000000000000000000600052601160045260246000fd5b60006137a982612b10565b91507fffffffffffffffffffffffffffffffffffffffffffffffffffffffffffffffff8214156137dc576137db61376f565b5b600182019050919050565b7f4e487b7100000000000000000000000000000000000000000000000000000000600052602260045260246000fd5b6000600282049050600182168061382e57607f821691505b60208210811415613842576138416137e7565b5b50919050565b7f4f6e6c792041646d696e00000000000000000000000000000000000000000000600082015250565b600061387e600a83612cd0565b915061388982613848565b602082019050919050565b600060208201905081810360008301526138ad81613871565b9050919050565b60006138bf82612b10565b91506138ca83612b10565b9250817fffffffffffffffffffffffffffffffffffffffffffffffffffffffffffffffff04831182151516156139035761390261376f565b5b828202905092915050565b7f4e487b7100000000000000000000000000000000000000000000000000000000600052601260045260246000fd5b600061394882612b10565b915061395383612b10565b9250826139635761396261390e565b5b828204905092915050565b7f455243313135353a207472616e736665722063616c6c6572206973206e6f742060008201527f6f776e6572206e6f7220617070726f7665640000000000000000000000000000602082015250565b60006139ca603283612cd0565b91506139d58261396e565b604082019050919050565b600060208201905081810360008301526139f9816139bd565b9050919050565b7f455243313135353a206163636f756e747320616e6420696473206c656e67746860008201527f206d69736d617463680000000000000000000000000000000000000000000000602082015250565b6000613a5c602983612cd0565b9150613a6782613a00565b604082019050919050565b60006020820190508181036000830152613a8b81613a4f565b9050919050565b7f4e487b7100000000000000000000000000000000000000000000000000000000600052603260045260246000fd5b7f4f776e61626c653a2063616c6c6572206973206e6f7420746865206f776e6572600082015250565b6000613af7602083612cd0565b9150613b0282613ac1565b602082019050919050565b60006020820190508181036000830152613b2681613aea565b9050919050565b7f416c72656164792041646d696e00000000000000000000000000000000000000600082015250565b6000613b63600d83612cd0565b9150613b6e82613b2d565b602082019050919050565b60006020820190508181036000830152613b9281613b56565b9050919050565b7f506c6561736520726567697374657220617320612053747564656e7400000000600082015250565b6000613bcf601c83612cd0565b9150613bda82613b99565b602082019050919050565b60006020820190508181036000830152613bfe81613bc2565b9050919050565b6000613c1082612b10565b9150613c1b83612b10565b925082821015613c2e57613c2d61376f565b5b828203905092915050565b7f455243313135353a2063616c6c6572206973206e6f74206f776e6572206e6f7260008201527f20617070726f7665640000000000000000000000000000000000000000000000602082015250565b6000613c95602983612cd0565b9150613ca082613c39565b604082019050919050565b60006020820190508181036000830152613cc481613c88565b9050919050565b7f4f776e61626c653a206e6577206f776e657220697320746865207a65726f206160008201527f6464726573730000000000000000000000000000000000000000000000000000602082015250565b6000613d27602683612cd0565b9150613d3282613ccb565b604082019050919050565b60006020820190508181036000830152613d5681613d1a565b9050919050565b7f455243323938313a20726f79616c7479206665652077696c6c2065786365656460008201527f2073616c65507269636500000000000000000000000000000000000000000000602082015250565b6000613db9602a83612cd0565b9150613dc482613d5d565b604082019050919050565b60006020820190508181036000830152613de881613dac565b9050919050565b7f455243323938313a20696e76616c696420726563656976657200000000000000600082015250565b6000613e25601983612cd0565b9150613e3082613def565b602082019050919050565b60006020820190508181036000830152613e5481613e18565b9050919050565b7f455243313135353a206d696e7420746f20746865207a65726f2061646472657360008201527f7300000000000000000000000000000000000000000000000000000000000000602082015250565b6000613eb7602183612cd0565b9150613ec282613e5b565b604082019050919050565b60006020820190508181036000830152613ee681613eaa565b9050919050565b6000613ef882612b10565b9150613f0383612b10565b9250827fffffffffffffffffffffffffffffffffffffffffffffffffffffffffffffffff03821115613f3857613f3761376f565b5b828201905092915050565b6000604082019050613f586000830185612b86565b613f656020830184612b86565b9392505050565b7f5468697320494420697320616c72656164792074616b656e0000000000000000600082015250565b6000613fa2601883612cd0565b9150613fad82613f6c565b602082019050919050565b60006020820190508181036000830152613fd181613f95565b9050919050565b7f5072696365206d757374206265206174206c6561737420312077656900000000600082015250565b600061400e601c83612cd0565b915061401982613fd8565b602082019050919050565b6000602082019050818103600083015261403d81614001565b9050919050565b60006080820190506140596000830187612fa8565b6140666020830186612fa8565b6140736040830185612b86565b6140806060830184612b86565b95945050505050565b7f455243313135353a2069647320616e6420616d6f756e7473206c656e6774682060008201527f6d69736d61746368000000000000000000000000000000000000000000000000602082015250565b60006140e5602883612cd0565b91506140f082614089565b604082019050919050565b60006020820190508181036000830152614114816140d8565b9050919050565b7f455243313135353a207472616e7366657220746f20746865207a65726f20616460008201527f6472657373000000000000000000000000000000000000000000000000000000602082015250565b6000614177602583612cd0565b91506141828261411b565b604082019050919050565b600060208201905081810360008301526141a68161416a565b9050919050565b7f455243313135353a20696e73756666696369656e742062616c616e636520666f60008201527f72207472616e7366657200000000000000000000000000000000000000000000602082015250565b6000614209602a83612cd0565b9150614214826141ad565b604082019050919050565b60006020820190508181036000830152614238816141fc565b9050919050565b6000604082019050818103600083015261425981856133b3565b9050818103602083015261426d81846133b3565b90509392505050565b7f455243313135353a2073657474696e6720617070726f76616c2073746174757360008201527f20666f722073656c660000000000000000000000000000000000000000000000602082015250565b60006142d2602983612cd0565b91506142dd82614276565b604082019050919050565b60006020820190508181036000830152614301816142c5565b9050919050565b600081519050919050565b600082825260208201905092915050565b600061432f82614308565b6143398185614313565b9350614349818560208601612ce1565b61435281612d14565b840191505092915050565b600060a0820190506143726000830188612fa8565b61437f6020830187612fa8565b61438c6040830186612b86565b6143996060830185612b86565b81810360808301526143ab8184614324565b90509695505050505050565b6000815190506143c681612c09565b92915050565b6000602082840312156143e2576143e1612aa8565b5b60006143f0848285016143b7565b91505092915050565b60008160e01c9050919050565b600060033d11156144255760046000803e6144226000516143f9565b90505b90565b600060443d1015614438576144bb565b614440612a9e565b60043d036004823e80513d602482011167ffffffffffffffff821117156144685750506144bb565b808201805167ffffffffffffffff81111561448657505050506144bb565b80602083010160043d0385018111156144a35750505050506144bb565b6144b282602001850186612db9565b82955050505050505b90565b7f455243313135353a207472616e7366657220746f206e6f6e204552433131353560008201527f526563656976657220696d706c656d656e746572000000000000000000000000602082015250565b600061451a603483612cd0565b9150614525826144be565b604082019050919050565b600060208201905081810360008301526145498161450d565b9050919050565b7f455243313135353a204552433131353552656365697665722072656a6563746560008201527f6420746f6b656e73000000000000000000000000000000000000000000000000602082015250565b60006145ac602883612cd0565b91506145b782614550565b604082019050919050565b600060208201905081810360008301526145db8161459f565b9050919050565b600060a0820190506145f76000830188612fa8565b6146046020830187612fa8565b818103604083015261461681866133b3565b9050818103606083015261462a81856133b3565b9050818103608083015261463e8184614324565b9050969550505050505056fea2646970667358221220b2d26005a8505234560d26c1ca412d119e738cbb6c4d35d29df5e7e87c15614864736f6c634300080c003368747470733a2f2f697066732e696f2f697066732f62616679626569676237747168756c6f357a6369717368757a766f667a337076376b6f7a7273353766676a6f35336a7a356e34716b6c3636717a752f416d702e6a736f6e",
  "immutableReferences": {},
  "source": "// SPDX-License-Identifier: UNLICENSED\r\npragma solidity ^0.8.12;\r\n\r\nimport \"@openzeppelin/contracts/utils/Counters.sol\";\r\nimport \"@openzeppelin/contracts/utils/math/SafeMath.sol\";\r\nimport \"@openzeppelin/contracts/token/common/ERC2981.sol\";\r\nimport \"@openzeppelin/contracts/token/ERC1155/ERC1155.sol\";\r\nimport \"@openzeppelin/contracts/access/Ownable.sol\";\r\n\r\ncontract Amp is ERC1155, ERC2981, Ownable {\r\n    using Counters for Counters.Counter;\r\n    Counters.Counter private _tokenIds;\r\n    Counters.Counter private _itemsSold;\r\n\r\n    //EVENTS//\r\n    event CourseItemCreated (\r\n      uint256 indexed id,\r\n      address creator,\r\n      address owner,\r\n      uint256 price,\r\n      uint _amount\r\n    );\r\n\r\n    struct Course {\r\n        uint id;\r\n        address payable creator;\r\n      //address payable owner;\r\n        uint price;\r\n        uint amount;  \r\n        string name;\r\n        string company; \r\n    }\r\n\r\n    \r\n    //change to private before going live\r\n    mapping(uint256 => Course) public idToCourses;\r\n    mapping(address => uint256) public students;\r\n    mapping(uint256 => bool) private courseIds;\r\n    mapping(address => bool) public admin;\r\n    mapping(address => bool) public apprvStudent;\r\n   \r\n    uint public nextCourseId;\r\n    uint public nextAdminId;\r\n    uint public nextStudentId;\r\n\r\n    uint256 listingPrice = 0.025 ether;\r\n    \r\n    constructor() ERC1155(\"https://ipfs.io/ipfs/bafybeigb7tqhulo5zciqshuzvofz3pv7kozrs57fgjo53jz5n4qkl66qzu/Amp.json\") {\r\n        // set royalty of all NFTs to 5%\r\n\r\n        _setDefaultRoyalty(_msgSender(), 500);\r\n    }\r\n\r\n   \r\n\r\n    //OWNER ONLY//\r\n    function approveAdmin(address _admin) public onlyOwner {\r\n      //Contract owner approves new admin addresses - Complete\r\n      //require check that the address being added doesnt already exist - Complete\r\n      require(admin[_admin] != true, \"Already Admin\");\r\n      admin[_admin] = true;  \r\n      nextAdminId++;\r\n    } \r\n\r\n    function setStudent(address _student) public {\r\n      require(admin[_student] != true, \"Already an admin. This address cannot be student\");\r\n      apprvStudent[_student] = true;\r\n      nextStudentId++;\r\n    }\r\n\r\n    //ADMINS ONLY//\r\n    /* Mints tokens and lists it in the marketplace */\r\n    //Should add newTokenID back here\r\n    function createCourse(uint256 _id, uint256 _amount, uint256 _price, string memory _name, string memory _company) virtual public payable onlyAdmin() returns (uint) {\r\n     \r\n      _setDefaultRoyalty(_msgSender(), 500);\r\n      _tokenIds.increment();\r\n      uint256 newTokenId = _tokenIds.current();\r\n\r\n      _mint(msg.sender, _id, _amount, \"\");\r\n      \r\n      createCourseItem(_id, _price, _amount, _name, _company);\r\n      return newTokenId;\r\n    }\r\n\r\n    function createCourseItem(\r\n      uint256 _id,\r\n      uint _amount,\r\n      uint256 _price,\r\n      string memory _name,\r\n      string memory _company\r\n    ) private onlyAdmin() {\r\n      require(courseIds[_id] == false, \"This ID is already taken\");\r\n      require(_price > 0, \"Price must be at least 1 wei\");\r\n      //require(msg.value == listingPrice, \"Price must be equal to listing price\");\r\n\r\n      idToCourses[_id] =  Course(\r\n        _id,\r\n        payable(msg.sender),\r\n      //  payable(address(this)),\r\n        _amount,\r\n        _price,\r\n        _name,\r\n        _company\r\n        \r\n      );\r\n\r\n      _safeTransferFrom(msg.sender, address(this), _id, _amount, \"\");\r\n      \r\n      emit CourseItemCreated(\r\n        _id,\r\n        msg.sender,\r\n        address(this),\r\n        _price,\r\n        _amount \r\n      );\r\n      \r\n      nextCourseId++;\r\n    }\r\n\r\n    /* Creates the sale of a marketplace item */\r\n    /* Transfers ownership of the item, as well as funds between parties */\r\n    /* Subtract 1 minted nft from Course ID on purchase */\r\n    /* This function is wrong. Don't use _safeTransferFrom*/\r\n    /* Need NonReentrant */\r\n\r\n    function createMarketSale(\r\n      uint256 _id,\r\n      uint256 _amount\r\n      ) public payable onlyStudent() {\r\n      //uint price = idToCourses[_id].price;\r\n        uint tokenId = idToCourses[_id].id;\r\n      //bool sold = idToCourses[_id].sold;\r\n      //require(msg.value == price, \"Please submit the asking price\");\r\n      //require(sold != true, \"This Sale is already finished\");\r\n      //EMIT MARKETID SOLD\r\n      //idToCourses[_id].creator.transfer(msg.value);\r\n      _safeTransferFrom(address(this), msg.sender, tokenId, _amount,\"\");\r\n      idToCourses[_id].amount = idToCourses[_id].amount -1;\r\n      \r\n\r\n\r\n\r\n    }\r\n\r\n    function supportsInterface(bytes4 interfaceId) public view virtual override(ERC1155, ERC2981) returns (bool) {\r\n        return super.supportsInterface(interfaceId);\r\n    }\r\n\r\n    function onERC1155Received(address, address, uint256, uint256, bytes memory) public virtual returns (bytes4) {\r\n        return this.onERC1155Received.selector;\r\n    }\r\n\r\n    function onERC1155BatchReceived(address, address, uint256[] memory, uint256[] memory, bytes memory) public virtual returns (bytes4) {\r\n        return this.onERC1155BatchReceived.selector;\r\n    }\r\n\r\n     /* Updates the listing price of the contract Has no Function at the moment*/\r\n    function updateListingPrice(uint _listingPrice) public payable onlyOwner {\r\n      listingPrice = _listingPrice;\r\n    }\r\n\r\n     /* Returns the listing price of the contract. Has No function at the moment*/\r\n    function getListingPrice() public view returns (uint256) {\r\n      return listingPrice;\r\n    }\r\n\r\n    //MODIFIERS//\r\n    //OnlyAdmins can use functions that utilize this modifier\r\n    modifier onlyAdmin() {\r\n      require(admin[_msgSender()] == true ,\"Only Admin\");\r\n      _;\r\n    }\r\n\r\n    //Not Sure if this is really needed.\r\n    modifier onlyStudent() {\r\n      require(apprvStudent[_msgSender()] == true, \"Please register as a Student\");\r\n      _;\r\n    }\r\n}\r\n",
  "sourcePath": "C:\\Users\\kosanam\\OneDrive\\Desktop\\AMP\\web\\contracts\\AMP.sol",
  "compiler": {
    "name": "solc",
    "version": "0.8.12+commit.f00d7308.Emscripten.clang"
  },
  "schemaVersion": "3.4.6",
  "updatedAt": "2022-04-07T06:49:12.891Z",
  "devdoc": {
    "kind": "dev",
    "methods": {
      "balanceOf(address,uint256)": {
        "details": "See {IERC1155-balanceOf}. Requirements: - `account` cannot be the zero address."
      },
      "balanceOfBatch(address[],uint256[])": {
        "details": "See {IERC1155-balanceOfBatch}. Requirements: - `accounts` and `ids` must have the same length."
      },
      "isApprovedForAll(address,address)": {
        "details": "See {IERC1155-isApprovedForAll}."
      },
      "owner()": {
        "details": "Returns the address of the current owner."
      },
      "renounceOwnership()": {
        "details": "Leaves the contract without owner. It will not be possible to call `onlyOwner` functions anymore. Can only be called by the current owner. NOTE: Renouncing ownership will leave the contract without an owner, thereby removing any functionality that is only available to the owner."
      },
      "royaltyInfo(uint256,uint256)": {
        "details": "Returns how much royalty is owed and to whom, based on a sale price that may be denominated in any unit of exchange. The royalty amount is denominated and should be payed in that same unit of exchange."
      },
      "safeBatchTransferFrom(address,address,uint256[],uint256[],bytes)": {
        "details": "See {IERC1155-safeBatchTransferFrom}."
      },
      "safeTransferFrom(address,address,uint256,uint256,bytes)": {
        "details": "See {IERC1155-safeTransferFrom}."
      },
      "setApprovalForAll(address,bool)": {
        "details": "See {IERC1155-setApprovalForAll}."
      },
      "transferOwnership(address)": {
        "details": "Transfers ownership of the contract to a new account (`newOwner`). Can only be called by the current owner."
      },
      "uri(uint256)": {
        "details": "See {IERC1155MetadataURI-uri}. This implementation returns the same URI for *all* token types. It relies on the token type ID substitution mechanism https://eips.ethereum.org/EIPS/eip-1155#metadata[defined in the EIP]. Clients calling this function must replace the `\\{id\\}` substring with the actual token type ID."
      }
    },
    "version": 1
  },
  "userdoc": {
    "kind": "user",
    "methods": {},
    "version": 1
  }
}